:100000000C945B000C9481000C9481000C94810092
:100010000C9481000C9481000C9481000C9481005C
:100020000C9481000C9481000C9481000C9481004C
:100030000C9481000C9481000C9481000C9481003C
:100040000C943C050C9481000C94A1070C94810045
:100050000C9481000C9481000C9481000C9481001C
:100060000C9481000C9481002607000024272A00AC
:100070000025282B0000232629040404040404047A
:100080000402020202020203030303030301020447
:10009000081020408001020408102001020408100A
:1000A0002000000007000201000003040600000019
:1000B00000000000000011241FBECFEFD4E0DEBF1F
:1000C000CDBF11E0A0E0B1E0E6E7F4E102C00590A9
:1000D0000D92A830B107D9F712E0A8E0B1E001C055
:1000E0001D92A732B107E1F710E0CAE6D0E004C0E4
:1000F0002297FE010E94230AC836D107C9F70C9443
:100100007C040C940000DB010E94270A802D9927B3
:100110000895DB01042E0E942F0A08950F931F9368
:10012000CF93DF93C6E5D1E00AE911E068817981D8
:10013000C8010E94F4068C819D81843691052CF4BF
:1001400060E070E0C8010E94F4068C819D810A97EE
:100150002CF460E070E0C8010E94F4066C817D819F
:10016000C8010E94F4062E9681E0CC39D807F1F63A
:1001700063E28AE991E00E947906DF91CF911F91B5
:100180000F9108950F931F93CF93DF938C01FC0180
:10019000C681D7812197D7FF02C0C0E0D0E0BE0161
:1001A000F80180810E940D06F801D783C683DF9194
:1001B000CF911F910F9108950F931F93CF93DF93CA
:1001C0008C01FC01C681D7812196CF3FD10519F062
:1001D00014F0CFEFD0E0BE01F80180810E940D063F
:1001E000F801D783C683DF91CF911F910F910895B6
:1001F0000F931F938C0160E070E0FC0180810E94EE
:100200000D06F801138212826085718540E088E056
:1002100091E00E9489001F910F9108950F931F9301
:100220008C01FC016681778180810E940D0681E04E
:1002300090E0F80193838283958384836085718540
:1002400041E088E091E00E9489001F910F9108959C
:100250000F931F93CF93DF93FC0140818181282F5F
:10026000332727FD3095205330409281538164819C
:100270002630310508F083C0403379F4220F331F54
:10028000C90163E0880F991F6A95E1F7821B930B00
:100290008C5A9E4F0E94F80010C0413389F4220FFF
:1002A000331FC90143E0880F991F4A95E1F7821B6C
:1002B000930B8C5A9E4F0E940E010E948E005FC0CD
:1002C0004233D9F3433319F461E070E004C044339E
:1002D00061F462E070E08AE991E00E94F40663E272
:1002E0008AE991E00E9479064AC0453319F462E038
:1002F00070E03BC04633A9F5062F112707FD109586
:10030000005D144184E69802C0011124080F191FF2
:100310008AE05802C0011124080F191F0F3F110570
:100320001CF00FEF10E005C01016110614F000E0ED
:1003300010E0C901880F991FEC0123E0CC0FDD1FED
:100340002A95E1F7C81BD90BCC5ADE4F8A819B81D5
:10035000892B21F0B80188810E940D061F830E832E
:10036000ACCF473361F465E070E08AE991E00E9428
:10037000F40660E071E08AE991E00E940707DF91EE
:10038000CF911F910F910895CF92DF92EF92FF923C
:100390000F931F93CF93DF93CDB7DEB726970FB69A
:1003A000F894DEBF0FBECDBF8AE991E00E941C0722
:1003B000863058F18AE991E00E94190700E010E0C8
:1003C0006E010894C11CD11CEAE9EE2EE1E0FE2E7C
:1003D0000CC00530110534F4F601E00FF11F8083E5
:1003E0000F5F1F4FC7010E941907833291F71E82CA
:1003F0008E010F5F1F4FC8010E9428018AE991E01A
:100400000E941607C8010E94670926960FB6F89445
:10041000DEBF0FBECDBFDF91CF911F910F91FF9037
:10042000EF90DF90CF900895CF93DF938CE00E9400
:10043000A5040197A9F4C0E0D0E09E01220F331F6C
:10044000C901F3E0880F991FFA95E1F7821B930B1E
:100450008C5A9E4F0E94F8002196C530D10569F74D
:10046000DF91CF910895EF92FF920F931F93CF9357
:10047000DF93EC0188810E94A5048C018A819B8115
:100480000130110509F040C0892B69F40E94610513
:100490006C837D838E839F83688779878A879B8718
:1004A0001B830A831C86ED85FE8582819381892BBF
:1004B00029F4CF010E940E0181E08C870E94610522
:1004C0007B018C019B01AC012A50304040405040E0
:1004D00088859985AA85BB85281739074A075B0750
:1004E0000CF451C0ED85FE8584819581019721F43E
:1004F000CF010E94DC0003C0CF010E94C200E88649
:10050000F9860A871B873FC00197E9F51B821A828B
:100510000E9461052C813D814E815F8162177307C6
:10052000840795074CF0621B730B840B950B693C99
:100530007105810591053CF48C85882321F48D8516
:100540009E850E94F800ED85FE85848195816485F5
:100550007585019721F41582148240E005C081E081
:1005600090E09583848341E088E091E00E948900D7
:10057000ED85FE8562857385468188E091E00E9465
:1005800089000E948E00DF91CF911F910F91FF9003
:10059000EF900895CF93DF93C0E0D0E0CE01B4E0B8
:1005A000880F991FBA95E1F78C1B9D0B875F9E4FB3
:1005B0000E9433022196C530D10581F70E94C40103
:1005C000DF91CF910895EF92FF920F931F93CF93F6
:1005D000DF93C4E5D1E000E010E078E0E72E71E0C1
:1005E000F72E6A857B85C7010E94830099279F8328
:1005F0008E836C857D85C7010E948300813029F43C
:1006000081E090E09D838C8302C01D821C826885FE
:100610007985C7010E9483009801220F331F813022
:1006200069F4C90153E0880F991F5A95E1F7821BBD
:10063000930B8C5A9E4F0E940E010CC0C90143E0DF
:10064000880F991F4A95E1F7821B930B8C5A9E4F96
:100650000E94F8000F5F1F4F2E960530110509F616
:10066000DF91CF911F910F91FF90EF9008952F92FE
:100670003F924F925F926F927F928F929F92AF9232
:10068000BF92CF92DF92EF92FF920F931F93CF937F
:10069000DF9304E511E043E0842E912C9092550104
:1006A0008092540160E070E083E00E940D06109299
:1006B00057011092560110925B0110925A0110924C
:1006C0005D0110925C0185E090E090935F01809362
:1006D0005E013AE0E32EF12CF0926101E0926001BC
:1006E000909363018093620160E070E085E00E9476
:1006F0000D0610926501109264011092690110922A
:10070000680181E090E090936B0180936A0186E03C
:1007100090E090936D0180936C012BE0222E312CA0
:1007200030926F0120926E0190937101809370015D
:1007300060E070E086E00E940D0610927301109256
:100740007201109277011092760192E0A92EB12CDD
:10075000B0927901A092780187E0682E712C709296
:100760007B0160927A018CE090E090937D01809310
:100770007C01E801AA96B9E0CB2ED12CD0927F0162
:10078000C0927E0160E070E089E00E940D06109248
:100790008101109280011092850110928401909243
:1007A000870180928601A8E08A2E912C909289017F
:1007B000809288018DE090E090938B0180938A0174
:1007C000F8E34F2E512C400E511EF0928D01E09215
:1007D0008C0160E070E08AE00E940D0610928F01AB
:1007E00010928E011092930110929201E4E0EE2E8D
:1007F000F12CF0929501E0929401D0929701C09271
:1008000096018EE090E09093990180939801B092C8
:100810000A01A092090160E082E00E948704109220
:100820000C0110920B011093170100931601F09226
:100830001901E092180160E084E00E9487041092A0
:100840001B0110921A01025F1F4F109326010093A3
:100850002501709228016092270160E087E00E94E4
:10086000870410922A011092290180E791E0909369
:10087000350180933401909237018092360160E017
:1008800088E00E9487041092390110923801D093B9
:100890004401C0934301309246012092450160E03B
:1008A0008BE00E94870410924801109247015092F9
:1008B00053014092520160E08CE00E9487040E9444
:1008C000E30240E855E260E070E08AE991E00E94CE
:1008D0002007DF91CF911F910F91FF90EF90DF9054
:1008E000CF90BF90AF909F908F907F906F905F90D0
:1008F0004F903F902F900895CFEFD4E0DEBFCDBF53
:100900000E94A8050E9437030E94CA02FDCF282F2B
:100910003327C90183579F4FFC01949127583F4FBC
:10092000F9018491882381F0E82FFF27E659FF4FD2
:10093000E491FF27662329F48081909589238083A1
:1009400008958081892B80830895482F5527CA01F7
:100950008F559F4FFC012491CA0183579F4FFC0183
:10096000949147585F4FFA013491332319F480E092
:1009700090E00895222331F1233021F4809180000A
:100980008F7705C0243031F4809180008F7D809373
:10099000800018C0213019F484B58F7704C022304C
:1009A00021F484B58F7D84BD0DC0263021F4809163
:1009B000B0008F7705C0273029F48091B0008F7D7B
:1009C0008093B000E32FFF27EC58FF4FE491FF27FF
:1009D000808120E030E0892311F021E030E0C9017E
:1009E0000895482F5527CA018F559F4FFC01249128
:1009F000CA0183579F4FFC01949147585F4FFA01FA
:100A000034913323C1F1222331F1233021F4809139
:100A100080008F7705C0243031F4809180008F7D75
:100A20008093800018C0213019F484B58F7704C0FA
:100A3000223021F484B58F7D84BD0DC0263021F491
:100A40008091B0008F7705C0273029F48091B000E5
:100A50008F7D8093B000E32FFF27E159FF4FE49192
:100A6000FF27662329F48081909589238083089548
:100A70008081892B808308951F920F920FB60F9269
:100A800011248F939F93AF93BF9380919F01909177
:100A9000A001A091A101B091A2010196A11DB11DDB
:100AA00080939F019093A001A093A101B093A20114
:100AB000BF91AF919F918F910F900FBE0F901F909C
:100AC000189560919F017091A0018091A101909172
:100AD000A20127E0660F771F881F991F2A95D1F77B
:100AE0002DE730E040E050E00E94D009CA01B90192
:100AF0000895AF92BF92CF92DF92EF92FF920F9341
:100B00001F935B016C010E9461057B018C010E94B7
:100B100061056E197F09800B910B6A157B058C05A9
:100B20009D05A8F31F910F91FF90EF90DF90CF905C
:100B3000BF90AF900895019751F0880F991F880FCB
:100B4000991F02972FB7F8940197F1F72FBF0895D7
:100B5000789410929F011092A0011092A10110921E
:100B6000A20184B5826084BD84B5816084BD85B5F1
:100B7000826085BD85B5816085BDEEE6F0E080814F
:100B800081608083E1E8F0E0808182608083808101
:100B900081608083E0E8F0E0808181608083E1EB28
:100BA000F0E0808184608083E0EBF0E08081816010
:100BB0008083ECE7F0E080818F77808380818064A0
:100BC0008083EAE7F0E080818460808380818260B6
:100BD000808380818160808380818068808310929F
:100BE000C100089590917C008F70907F892B809335
:100BF0007C0080917A00806480937A0080917A00F2
:100C000086FDFCCF20917800809179009927982F5C
:100C100088273327822B932B08951F93CF93DF933D
:100C2000182FEB0161E00E948704E12FFF27EF55A9
:100C3000FF4F8491833051F48091800080688093CD
:100C40008000D0938900C093880037C0843051F46D
:100C500080918000806280938000D0938B00C0934D
:100C60008A002BC0813029F484B5806884BDC7BD5B
:100C700024C0823029F484B5806284BDC8BD1DC003
:100C8000863041F48091B00080688093B000C093BA
:100C9000B30013C0873041F48091B000806280932C
:100CA000B000C093B40009C0C038D10514F460E0AE
:100CB00001C061E0812F0E94F104DF91CF911F916B
:100CC000089508950895CB01BA0133274427552785
:100CD0000E94E70708952AE00E9463060895AB0189
:100CE000662777270E946B060895862F0E94DF07EC
:100CF0000895862F0E94DF0708950F931F938C019C
:100D00006DE00E9479066AE0C8010E9479061F9191
:100D10000F9108950F931F938C010E946B06C801D9
:100D20000E947D061F910F9108950F931F938C01D0
:100D30000E947506C8010E947D061F910F910895BB
:100D40000F931F938C010E947906C8010E947D06B3
:100D50001F910F910895EF92FF920F931F93CF93DE
:100D6000DF93EC017A018B0177FF0BC06DE20E94EB
:100D7000790610950095F094E094E11CF11C011D9A
:100D8000111D2AE0B801A701CE010E946306DF9180
:100D9000CF911F910F91FF90EF9008950F931F93A4
:100DA0008C010E94AB06C8010E947D061F910F9125
:100DB00008952115310521F4642F0E9479060895C4
:100DC0002A30310519F40E94AB0608950E9463068B
:100DD00008950F931F938C010E94D906C8010E94A9
:100DE0007D061F910F910895AB01662757FD609511
:100DF000762F0E94AB0608950F931F938C010E94DB
:100E0000F406C8010E947D061F910F910895CB0141
:100E10000E94B70808950F931F938C010E94070743
:100E2000C8010E947D061F910F9108950E949807A6
:100E300008950E94790708950E94680799270895E8
:100E4000CB01BA010E942707089508950895EF92F3
:100E5000FF920F931F937B018C0122E030E040E072
:100E600050E00E94F209205C3D4B404F5F4FCA01A9
:100E7000B901A80197010E94F20921503040404079
:100E80005040BB2757FDBA95A52F942F832F2F5F76
:100E90003F4F4F4F5F4F8093C50021502093C400B8
:100EA000E1ECF0E0808180618083808188608083D4
:100EB0008081806880831F910F91FF90EF9008954B
:100EC000982F8091C00085FFFCCF9093C6000895B5
:100ED00080919B0190919C0180589F4F20919D0192
:100EE00030919E01821B930B60E870E00E94BD0967
:100EF000089540919D0150919E0180919B01909198
:100F00009C018417950719F48FEF9FEF0895FA015C
:100F1000ED55FE4F2081CA01019660E870E00E9405
:100F2000BD0990939E0180939D01822F992708957A
:100F300080919D0190919E0190939C0180939B01D3
:100F400008951F920F920FB60F9211242F933F9383
:100F50004F935F936F937F938F939F93AF93BF93C1
:100F6000EF93FF934091C600E0919B01F0919C01AB
:100F7000CF01019660E870E00E94BD099C0180915C
:100F80009D0190919E012817390739F0ED55FE4FCC
:100F9000408330939C0120939B01FF91EF91BF917F
:100FA000AF919F918F917F916F915F914F913F9101
:100FB0002F910F900FBE0F901F9018950895982FA6
:100FC0008091C00085FFFCCF9093C60008952F92BA
:100FD0003F924F925F926F927F928F929F92AF92C9
:100FE000BF92CF92DF92EF92FF920F931F93CF9316
:100FF000DF93CDB7DEB7A0970FB6F894DEBF0FBE74
:10100000CDBF6B017C0129013A0161157105810594
:10101000910541F48091C00085FFFCCF80E380936F
:10102000C6004BC08824992454011E010894211C39
:10103000311C8101080D191DC701B601A3019201E0
:101040000E94D009F80160830894811C911CA11CA6
:10105000B11CC701B601A30192010E94D009690128
:101060007A01211531054105510519F708948108C8
:101070009108A108B108F101E80DF91D0894811C3F
:10108000911CA11CB11C14C0089481089108A108EE
:10109000B10880818A3018F4982F905D02C0982F93
:1010A000995C8091C00085FFFCCF9093C60031977A
:1010B00081149104A104B10439F7A0960FB6F894F5
:1010C000DEBF0FBECDBFDF91CF911F910F91FF907B
:1010D000EF90DF90CF90BF90AF909F908F907F90D8
:1010E0006F905F904F903F902F90089520E130E0F7
:1010F00040E050E00E94E707089528E030E040E03B
:1011000050E00E94E707089522E030E040E050E020
:101110000E94E70708958091C00085FFFCCF8AE018
:101120008093C6000895EF92FF920F931F937B0167
:101130008C0197FF0FC08091C00085FFFCCF8DE22E
:101140008093C60010950095F094E094E11CF11C8A
:10115000011D111D2AE030E040E050E0C801B70158
:101160000E94E7071F910F91FF90EF900895FC01F7
:1011700007C08091C00085FFFCCF31969093C600D8
:1011800090819923B1F70895CF93DF93AC01029733
:1011900010F442E050E0A0912502B0912602FD013A
:1011A000C0E0D0E020E030E020C080819181841751
:1011B000950769F482819381209719F09B838A8334
:1011C00004C09093260280932502CF0132C04817B5
:1011D000590738F42115310519F08217930708F4DF
:1011E0009C01EF010280F381E02D3097F1F621158B
:1011F000310589F1C901841B950B049708F4A901F5
:10120000E0E0F0E026C08D919C9111978217930742
:10121000E9F44817590779F4ED018A819B813097E9
:1012200019F09383828304C0909326028093250251
:10123000CD01029649C0841B950BFD01E80FF91FF3
:101240004193519302978D939C933AC0FD01A281E3
:10125000B3811097C1F68091230290912402892BCB
:1012600041F48091040190910501909324028093B0
:10127000230220910601309107012115310541F427
:101280002DB73EB78091020190910301281B390BC5
:10129000E0912302F09124022E1B3F0B2417350707
:1012A00088F0CA0102962817390760F0CF01840F31
:1012B000951F0296909324028093230241935193A9
:1012C000CF0102C080E090E0DF91CF910895CF93ED
:1012D000DF93009709F44EC0EC0122971B821A821B
:1012E000A0912502B0912602109711F140E050E044
:1012F00001C0DC01AC17BD0700F1BB83AA83FE016E
:1013000021913191E20FF31FEA17FB0771F42E5F71
:101310003F4F8D919C911197820F931F99838883E2
:10132000FD01828193819B838A834115510559F484
:10133000D0932602C09325021DC0FD0182819381B6
:10134000AD010097B1F6FA01D383C28321913191A7
:10135000E20FF31FEC17FD0769F42E5F3F4F888102
:101360009981820F931FFA01918380838A819B81E7
:1013700093838283DF91CF91089597FB092E0726EF
:101380000AD077FD04D049D006D000201AF4709519
:1013900061957F4F0895F6F7909581959F4F089539
:1013A000A1E21A2EAA1BBB1BFD010DC0AA1FBB1F69
:1013B000EE1FFF1FA217B307E407F50720F0A21BDB
:1013C000B30BE40BF50B661F771F881F991F1A9448
:1013D00069F760957095809590959B01AC01BD0172
:1013E000CF01089597FB092E05260ED057FD04D096
:1013F000D7DF0AD0001C38F45095409530952195E0
:101400003F4F4F4F5F4F0895F6F790958095709539
:1014100061957F4F8F4F9F4F0895AA1BBB1B51E1D2
:1014200007C0AA1FBB1FA617B70710F0A61BB70B54
:10143000881F991F5A95A9F780959095BC01CD01F9
:101440000895EE0FFF1F0590F491E02D0994F9998E
:10145000FECFB2BDA1BDF89A119600B40895F999D6
:10146000FECFB2BDA1BD00BC11960FB6F894FA9A9A
:06147000F99A0FBE089579
:08147600230020002702000002
:00000001FF
