:100000000C945B000C9481000C9481000C94810092
:100010000C9481000C9481000C9481000C9481005C
:100020000C9481000C9481000C9481000C9481004C
:100030000C9481000C9481000C9481000C9481003C
:100040000C9405040C9481000C94FB050C94810025
:100050000C9481000C9481000C9481000C9481001C
:100060000C9481000C9481008005000024272A0054
:100070000025282B0000232629040404040404047A
:100080000402020202020203030303030301020447
:10009000081020408001020408102001020408100A
:1000A0002000000007000201000003040600000019
:1000B00000000000000011241FBECFEFD4E0DEBF1F
:1000C000CDBF11E0A0E0B1E0EAE2F1E102C00590AD
:1000D0000D92AC30B107D9F711E0ACE0B1E001C04E
:1000E0001D92A23EB107E1F710E0CAE6D0E004C0DD
:1000F0002297FE010E947D08C836D107C9F70C94EB
:1001000045030C940000DB010E948108802D992793
:100110000895DB01042E0E9489080895EF92FF9252
:100120000F931F93CF93DF93C3E3D1E005E511E075
:1001300080E0E82E81E0F82E68817981C8010E9474
:100140004E05B701C8010E946105269681E0C735BA
:10015000D80791F763E285E591E00E94D304DF912F
:10016000CF911F910F91FF90EF9008950F931F93E0
:100170008C0160E0FC0180810E94BA03F8011382C7
:1001800012826481758140E08CE091E00E948900D8
:100190001F910F9108950F931F938C0161E0FC0153
:1001A00080810E94BA0381E090E0F801938382830A
:1001B0006481758141E08CE091E00E9489001F918B
:1001C0000F910895FC0140818181282F332727FD5D
:1001D0003095205330402630310508F04EC0403372
:1001E00061F4C901880F991F820F931F880F991F0F
:1001F0008F5C9E4F0E94B60010C0413361F4C9016C
:10020000880F991F820F931F880F991F8F5C9E4F35
:100210000E94CB0002C0423319F40E948E00089560
:10022000433311F0443361F461E070E085E591E01F
:100230000E944E0563E285E591E00E94D304089593
:10024000453369F461E070E085E591E00E944E0578
:1002500064E071E085E591E00E946105089547330F
:1002600061F466E070E085E591E00E944E0564E08F
:1002700071E085E591E00E9461050895CF92DF92DB
:10028000EF92FF920F931F93CF93DF93CDB7DEB71B
:1002900026970FB6F894DEBF0FBECDBF85E591E07F
:1002A0000E947605863058F185E591E00E9473053D
:1002B00000E010E06E010894C11CD11C75E5E72E2A
:1002C00071E0F72E0CC00530110534F4F601E00F93
:1002D000F11F80830F5F1F4FC7010E947305833298
:1002E00091F71E828E010F5F1F4FC8010E94E2002E
:1002F00085E591E00E947005C8010E94C10726961D
:100300000FB6F894DEBF0FBECDBFDF91CF911F9126
:100310000F91FF90EF90DF90CF900895CF93DF93F0
:10032000EC0188810E946E032A813B810197A1F430
:10033000232BB9F4EC81FD8182819381892B21F4F7
:10034000CF010E94CB0003C0CF010E94B60081E024
:1003500090E09B838A8305C02130310511F41B8214
:100360001A82DF91CF910895CF93DF93C0E0D0E060
:10037000CE01880F991F8C0F9D1F880F991F835FD7
:100380009E4F0E948E012196C630D10589F70E94AA
:100390003E01DF91CF910895EF92FF920F931F934B
:1003A000CF93DF9305E311E0C0E0D0E02CE0E22E34
:1003B00021E0F22EF80160817181C7010E94830063
:1003C0009E01220F331F813051F42C0F3D1F220F4D
:1003D000331FC9018F5C9E4F0E94CB0009C02C0FB8
:1003E0003D1F220F331FC9018F5C9E4F0E94B60034
:1003F00021960A5F1F4FC630D105E1F6DF91CF91FC
:100400001F910F91FF90EF9008952F923F924F927E
:100410005F926F927F928F929F92AF92BF92CF9294
:10042000DF92EF92FF920F931F93CF93DF9301E33D
:1004300011E088E090E0909332018093310161E017
:1004400088E00E94500360E0809131010E94BA036D
:10045000109234011092330110923601109235013E
:1004600089E090E0909338018093370161E089E062
:100470000E94500360E0809137010E94BA031092FD
:100480003A011092390181E090E090933C01809311
:100490003B01E8012C968AE090E090933E01809326
:1004A0003D0161E08AE00E94500360E080913D01DF
:1004B0000E94BA031092400110923F01F2E08F2E89
:1004C000912C9092420180924101E2E12E2E312C3A
:1004D000200E311E8BE090E0909344018093430105
:1004E00061E08BE00E94500360E0809143010E9434
:1004F000BA03109246011092450173E0A72EB12C69
:10050000B0924801A092470168E1462E512C400E5E
:10051000511E8CE090E090934A018093490161E084
:100520008CE00E94500360E0809149010E94BA0370
:1005300010924C0110924B0154E0C52ED12CD09258
:100540004E01C0924D014EE1642E712C600E711E61
:100550008DE090E09093500180934F0161E08DE039
:100560000E94500360E080914F010E94BA031092F4
:1005700052011092510135E0E32EF12CF09254011A
:10058000E092530190920E0180920D0160E082E0B2
:100590000E9450031092100110920F01109312014B
:1005A00000931101B0921401A092130160E083E066
:1005B0000E94500310921601109215010A5F1F4FFE
:1005C0001093180100931701D0921A01C0921901DB
:1005D00060E084E00E94500310921C0110921B0105
:1005E000D0931E01C0931D01F0922001E0921F01E3
:1005F00060E085E00E9450031092220110922101D8
:10060000309224012092230186E090E0909326010D
:100610008093250160E086E00E945003109228013B
:100620001092270150922A014092290187E090E020
:1006300090932C0180932B0160E087E00E9450038F
:1006400010922E0110922D017092300160922F01B4
:100650000E94CC0140E855E260E070E085E591E061
:100660000E947A05DF91CF911F910F91FF90EF903B
:10067000DF90CF90BF90AF909F908F907F906F90C2
:100680005F904F903F902F900895CFEFD4E0DEBF62
:10069000CDBF0E9471040E9405020E94B401FDCFEB
:1006A000282F3327C90183579F4FFC019491275866
:1006B0003F4FF9018491882381F0E82FFF27E65905
:1006C000FF4FE491FF27662329F4808190958923C9
:1006D000808308958081892B80830895482F552732
:1006E000CA018F559F4FFC012491CA0183579F4F28
:1006F000FC01949147585F4FFA013491332319F468
:1007000080E090E00895222331F1233021F480919C
:1007100080008F7705C0243031F4809180008F7D78
:100720008093800018C0213019F484B58F7704C0FD
:10073000223021F484B58F7D84BD0DC0263021F494
:100740008091B0008F7705C0273029F48091B000E8
:100750008F7D8093B000E32FFF27EC58FF4FE4918B
:10076000FF27808120E030E0892311F021E030E094
:10077000C9010895482F5527CA018F559F4FFC0185
:100780002491CA0183579F4FFC01949147585F4FB2
:10079000FA0134913323C1F1222331F1233021F4C2
:1007A000809180008F7705C0243031F480918000E3
:1007B0008F7D8093800018C0213019F484B58F7725
:1007C00004C0223021F484B58F7D84BD0DC0263055
:1007D00021F48091B0008F7705C0273029F48091F3
:1007E000B0008F7D8093B000E32FFF27E159FF4FCA
:1007F000E491FF27662329F48081909589238083E3
:1008000008958081892B808308951F920F920FB6DF
:100810000F9211248F939F93AF93BF9380915A01AE
:1008200090915B01A0915C01B0915D010196A11DC9
:10083000B11D80935A0190935B01A0935C01B0932A
:100840005D01BF91AF919F918F910F900FBE0F905F
:100850001F90189560915A0170915B0180915C0125
:1008600090915D0127E0660F771F881F991F2A95D9
:10087000D1F72DE730E040E050E00E942A08CA019D
:10088000B9010895AF92BF92CF92DF92EF92FF929B
:100890000F931F935B016C010E942A047B018C0162
:1008A0000E942A046E197F09800B910B6A157B0543
:1008B0008C059D05A8F31F910F91FF90EF90DF909D
:1008C000CF90BF90AF900895019751F0880F991F76
:1008D000880F991F02972FB7F8940197F1F72FBF50
:1008E0000895789410925A0110925B0110925C0165
:1008F00010925D0184B5826084BD84B5816084BD41
:1009000085B5826085BD85B5816085BDEEE6F0E088
:10091000808181608083E1E8F0E080818260808373
:10092000808181608083E0E8F0E080818160808365
:10093000E1EBF0E0808184608083E0EBF0E0808197
:1009400081608083ECE7F0E080818F778083808115
:1009500080648083EAE7F0E0808184608083808126
:1009600082608083808181608083808180688083D1
:100970001092C100089508950895CB01BA0133275C
:10098000442755270E94410608952AE00E94BD048D
:100990000895AB01662777270E94C5040895862F26
:1009A0000E9439060895862F0E94390608950F93F4
:1009B0001F938C016DE00E94D3046AE0C8010E947D
:1009C000D3041F910F9108950F931F938C010E94E0
:1009D000C504C8010E94D7041F910F9108950F9379
:1009E0001F938C010E94CF04C8010E94D7041F915D
:1009F0000F9108950F931F938C010E94D304C80197
:100A00000E94D7041F910F910895EF92FF920F93C8
:100A10001F93CF93DF93EC017A018B0177FF0BC01B
:100A20006DE20E94D30410950095F094E094E11CCF
:100A3000F11C011D111D2AE0B801A701CE010E9481
:100A4000BD04DF91CF911F910F91FF90EF9008951A
:100A50000F931F938C010E940505C8010E94D704C3
:100A60001F910F9108952115310521F4642F0E94E3
:100A7000D30408952A30310519F40E94050508951C
:100A80000E94BD0408950F931F938C010E943305AB
:100A9000C8010E94D7041F910F910895AB016627EA
:100AA00057FD6095762F0E94050508950F931F93BB
:100AB0008C010E944E05C8010E94D7041F910F911E
:100AC0000895CB010E94110708950F931F938C0185
:100AD0000E946105C8010E94D7041F910F910895DB
:100AE0000E94F20508950E94D30508950E94C20550
:100AF00099270895CB01BA010E94810508950895B0
:100B00000895EF92FF920F931F937B018C0122E0D7
:100B100030E040E050E00E944C08205C3D4B404FEC
:100B20005F4FCA01B901A80197010E944C082150EA
:100B3000304040405040BB2757FDBA95A52F942F19
:100B4000832F2F5F3F4F4F4F5F4F8093C500215042
:100B50002093C400E1ECF0E080818061808380819B
:100B6000886080838081806880831F910F91FF90CF
:100B7000EF900895982F8091C00085FFFCCF90934F
:100B8000C6000895809156019091570180589F4F5B
:100B90002091580130915901821B930B60E870E05D
:100BA0000E94170808954091580150915901809171
:100BB0005601909157018417950719F48FEF9FEF15
:100BC0000895FA01E25AFE4F2081CA01019660E8B9
:100BD00070E00E9417089093590180935801822F6A
:100BE0009927089580915801909159019093570148
:100BF0008093560108951F920F920FB60F92112401
:100C00002F933F934F935F936F937F938F939F9314
:100C1000AF93BF93EF93FF934091C600E0915601CD
:100C2000F0915701CF01019660E870E00E9417082B
:100C30009C0180915801909159012817390739F08A
:100C4000E25AFE4F40833093570120935601FF91A3
:100C5000EF91BF91AF919F918F917F916F915F9134
:100C60004F913F912F910F900FBE0F901F901895AD
:100C70000895982F8091C00085FFFCCF9093C60007
:100C800008952F923F924F925F926F927F928F9230
:100C90009F92AF92BF92CF92DF92EF92FF920F930B
:100CA0001F93CF93DF93CDB7DEB7A0970FB6F8941D
:100CB000DEBF0FBECDBF6B017C0129013A0161157A
:100CC00071058105910541F48091C00085FFFCCF3D
:100CD00080E38093C6004BC08824992454011E01F0
:100CE0000894211C311C8101080D191DC701B60192
:100CF000A30192010E942A08F80160830894811CD4
:100D0000911CA11CB11CC701B601A30192010E9454
:100D10002A0869017A01211531054105510519F7A4
:100D2000089481089108A108B108F101E80DF91DA6
:100D30000894811C911CA11CB11C14C0089481084A
:100D40009108A108B10880818A3018F4982F905D2D
:100D500002C0982F995C8091C00085FFFCCF9093D2
:100D6000C600319781149104A104B10439F7A0960B
:100D70000FB6F894DEBF0FBECDBFDF91CF911F91AC
:100D80000F91FF90EF90DF90CF90BF90AF909F902A
:100D90008F907F906F905F904F903F902F9008952D
:100DA00020E130E040E050E00E944106089528E054
:100DB00030E040E050E00E944106089522E030E03B
:100DC00040E050E00E94410608958091C00085FFF8
:100DD000FCCF8AE08093C6000895EF92FF920F93B4
:100DE0001F937B018C0197FF0FC08091C00085FF8E
:100DF000FCCF8DE28093C60010950095F094E094AE
:100E0000E11CF11C011D111D2AE030E040E050E022
:100E1000C801B7010E9441061F910F91FF90EF900A
:100E20000895FC0107C08091C00085FFFCCF31967A
:100E30009093C60090819923B1F70895CF93DF93E3
:100E4000AC01029710F442E050E0A091E001B091B3
:100E5000E101FD01C0E0D0E020E030E020C0808171
:100E600091818417950769F482819381209719F005
:100E70009B838A8304C09093E1018093E001CF01BA
:100E800032C04817590738F42115310519F0821777
:100E9000930708F49C01EF010280F381E02D309765
:100EA000F1F62115310589F1C901841B950B0497D1
:100EB00008F4A901E0E0F0E026C08D919C91119723
:100EC00082179307E9F44817590779F4ED018A81ED
:100ED0009B81309719F09383828304C09093E10142
:100EE0008093E001CD01029649C0841B950BFD0162
:100EF000E80FF91F4193519302978D939C933AC049
:100F0000FD01A281B3811097C1F68091DE0190911D
:100F1000DF01892B41F480910801909109019093A0
:100F2000DF018093DE0120910A0130910B01211530
:100F3000310541F42DB73EB780910601909107012C
:100F4000281B390BE091DE01F091DF012E1B3F0BD6
:100F50002417350788F0CA0102962817390760F070
:100F6000CF01840F951F02969093DF018093DE01DD
:100F700041935193CF0102C080E090E0DF91CF9187
:100F80000895CF93DF93009709F44EC0EC012297A8
:100F90001B821A82A091E001B091E101109711F13A
:100FA00040E050E001C0DC01AC17BD0700F1BB839D
:100FB000AA83FE0121913191E20FF31FEA17FB078B
:100FC00071F42E5F3F4F8D919C911197820F931F6B
:100FD00099838883FD01828193819B838A83411554
:100FE000510559F4D093E101C093E0011DC0FD010A
:100FF00082819381AD010097B1F6FA01D383C28358
:1010000021913191E20FF31FEC17FD0769F42E5F78
:101010003F4F88819981820F931FFA0191838083CA
:101020008A819B8193838283DF91CF91089597FB7F
:10103000092E07260AD077FD04D049D006D000201B
:101040001AF4709561957F4F0895F6F79095819504
:101050009F4F0895A1E21A2EAA1BBB1BFD010DC0D4
:10106000AA1FBB1FEE1FFF1FA217B307E407F50758
:1010700020F0A21BB30BE40BF50B661F771F881F34
:10108000991F1A9469F760957095809590959B01CA
:10109000AC01BD01CF01089597FB092E05260ED0A6
:1010A00057FD04D0D7DF0AD0001C38F45095409586
:1010B000309521953F4F4F4F5F4F0895F6F790952C
:1010C0008095709561957F4F8F4F9F4F0895AA1B14
:1010D000BB1B51E107C0AA1FBB1FA617B70710F023
:1010E000A61BB70B881F991F5A95A9F78095909555
:1010F000BC01CD010895EE0FFF1F0590F491E02D86
:101100000994F999FECFB2BDA1BDF89A119600B429
:101110000895F999FECFB2BDA1BD00BC11960FB6DE
:0A112000F894FA9AF99A0FBE0895A8
:0C112A003030300023002000E201000003
:00000001FF
